:100000000040002099D60000E7D60000B5BA0000F5
:10001000EBD60000EDD60000EFD60000E5D60000DC
:10002000E5D60000E5D60000E5D60000F1D60000D8
:10003000F3D60000E5D60000F5D6000045D6000056
:100040004505000091CF000091C80000FFD60000D8
:1000500001D7000003D7000005D7000007D7000034
:1000600031D100000BD70000ADC80000C9C80000A6
:1000700011D7000013D7000015D7000017D70000D4
:1000800019D700001BD7000079B600001FD7000069
:1000900021D7000023D7000025D7000027D7000074
:1000A00029D700002BD700002DD700002FD7000044
:1000B00031D7000033D7000000000000000000002E
:1000C0000000000000000000000000000000000030
:1000D0000000000000000000000000000000000020
:1000E0000000000000000000000000000000000010
:1000F0000000000000000000000000000000000000
:10010000104B41F67132D96BDA635A680E4B02F02C
:10011000070203440D48012A94BF002201228342B2
:1001200004D8002A0CBF0122032200E05200054B34
:10013000586820F0070002435A6009B10022DA63D0
:10014000704700BF00000C40FFDB0BFFFF23F400F3
:1001500008B50DF0EFFABDE80840FFF7D1BF000089
:10016000034B5A6DD20702D41A6D1042FCD170476E
:1001700000800C40C0F30323013B70B50D46092BF2
:1001800023D8DFE803F014080522220B0E222211E7
:1001900000230E4C0DE000230D4C0AE001230D4C12
:1001A00007E010230C4C04E000230C4C01E00C4C45
:1001B0000023C0F3043613B11846FFF7D1FF04F152
:1001C000047406EBC406B600356070BD40800C4078
:1001D00044800C4058800C4060800C4078800C407B
:1001E00008800C4000F00F00013805282DD8DFE80A
:1001F00000F00519222C2C0307207047154BDB6AF1
:1002000003F47053B3F5805F0AD0B3F5005F05D0F7
:10021000B3F5006F0CBF0420052070470220704723
:10022000032070470B4B9B6A03F00303013B022B37
:100230000DD8094A07E0074B9B6A03F00C03043B07
:10024000082B04D8054AD05C704700207047012075
:10025000704700BF00800C4018E800001BE8000059
:1002600010B50446FFF7BEFF114B9C4207D0114B5F
:100270009C4208D1104B986AC0F3810003E00E4BFA
:10028000986A00F00300022807D0032809D001284B
:100290000BD1BDE810400DF0BBBABDE810400DF029
:1002A000BBBA0DF0A5FA400810BD002010BD00BF7C
:1002B0000200180003001A0000800C4000F47810BF
:1002C000B0F5801F08B535D013D8B0F5802F2AD0EF
:1002D00008D8002855D0B0F5003F56D1BDE80840F9
:1002E0000DF086BAB0F5402F41D0B0F5602F46D062
:1002F0004BE0B0F5B01F31D00DD8B0F5901F21D034
:10030000B0F5A01F41D12248FFF7AAFF214B1B6F78
:1003100003F0030329E0B0F5C01F09D0B0F5D01FEA
:1003200033D11B4816E00DF009FA1A4B9B6806E022
:1003300019480FE01848FFF793FF164B9B6E03F028
:100340000F0312E01448FFF78BFF124B9B6EC3F3B1
:1003500003130AE0BDE80840FFF782BF0C48FFF72F
:100360007FFF0C4B1B6FC3F30113D84008BD0B4834
:10037000FFF738FF072802D0082802D005E0084818
:1003800008BDBDE808400DF0D9B9002008BD00BF88
:1003900003001A0000800C400200180006000C0048
:1003A000809FD50030B5042829D8DFE800F00F0B76
:1003B00015030700012302201C4610E02020102313
:1003C00005240CE080204023072408E04FF400704F
:1003D0004FF48073092402E0082004230324084D0D
:1003E00041B12B623AB1074B23449B001A68002AA3
:1003F000FCD000E02862BDE8304000F095B930BD87
:1004000000800C406001E41010B500F00F04012CD6
:1004100003D04CD3032C22D910BD0239032946D86E
:10042000DFE801F0020B05080020042407E00220A9
:10043000044604E00320012401E0012003240121FB
:100440000A46FFF7AFFFFFF783FE194B5C6200F02F
:100450006BF90DF0CDF9BDE81040FFF751BE013941
:10046000052924D8DFE801F016030A23231101210E
:1004700000200A46FFF796FF02230CE00120014608
:100480000246FFF78FFF012305E00A4B01221A60A5
:10049000032300E00023064A022C916A0BBF21F0DF
:1004A000030121F00C010B4341EA8303936210BD69
:1004B00000800C40080890432DE9F041DFF880806F
:1004C0000401D8F808C0069D079F089EA4441AB9E5
:1004D000D8F80C80444400E06446DCF80CC0BCF161
:1004E000000F01D08CF8082057B1D4F808C0CCF325
:1004F000816CBCF1030F1CBF06FA0CFC674427603B
:100500003DB1A768BF0F032F1CBF06FA07F7ED190F
:100510006560012505FA00F0094D0BB1A86100E006
:10052000E8610AB1686300E02863A36823F47F539D
:1005300023F037030B4343EA0616A660BDE8F081BB
:1005400000200C40194B1A4A41F20C012DE9F041F0
:1005500012685F58D3F83880174007EA080502266A
:100560000024EDB1EB0718D50121A1400F4B114A32
:100570009B68116003EB0413DB6873B1197AD3F83D
:1005800000C081F001021A72BCF1000F05D00031E9
:10059000204618BF01215A68E0476D080134E0E7A2
:1005A000013E27EA0805DBD1BDE8F08100200C40C0
:1005B00000300C4008300C40F0B585B00A9C0F4666
:1005C00001940B9C164600930294334601213A464F
:1005D0000546FFF771FF012303FA05F5014B9D6204
:1005E00005B0F0BD00200C40104B10B59C688A6827
:1005F00004EB0014E2600C78012282400CB19A6393
:1006000000E0DA634A6800F5886443F82420084B68
:100610004A78034432B1012202FA00F0034C41F25D
:10062000080160509B001A6010BD00BF00200C4004
:100630006080E11010B50C4B09B19B6800E0DB68ED
:100640001179D478890441EA8431147803EB0010DD
:100650009378A407527844EA037444EA826242EA37
:1006600003630B43836010BD00200C400122044B48
:1006700002FA00F009B198627047D862704700BF73
:1006800000200C40034B9B6A23FA00F000F00100AD
:10069000704700BF00200C400F4B0120C3F88000C2
:1006A0000E4BFF2200215960DA615A62DA625A6306
:1006B000DA63D86441F20C020948995041F2080209
:1006C00098500A4602F5886101320020082A43F852
:1006D0002100F7D1704700BF00E100E000200C408E
:1006E000FF00008010B5012104460C48FFF742FDD1
:1006F000FFF7D2FF0A4B0122C3F880211A60094B91
:1007000041F20C024FF00041995062689A602278E1
:10071000520142F001025A6010BD00BF00130200F6
:1007200000E100E000200C40024BDA6A024B1A6044
:10073000704700BF00800C40000F002070B50446D9
:100740001E461546FAB1036823F44073036003683C
:1007500023F4407343EA0623036019B90A48FFF7FC
:10076000ADFD01462368094BA1EB85019A5D236825
:1007700055439B07B1FBF5F202F1FF3202D5002A87
:1007800008BF0122226170BD4081040024E80000FE
:1007900000224263094A38B502634A7800F10475C1
:1007A0006B0182F001020C465A604968237BA26803
:1007B000FFF7C4FF23786D012B6038BDCFFF010028
:1007C000002303600361436183614363014B03635F
:1007D000704700BFCFFF0100964BF0B5984240F044
:1007E0002481954B98681E7859881A79914FBC6A74
:1007F0003D4614F4C06F0CD0A5058F4859801A717E
:1008000001D5FD2203E0640540F1FF80FE22427025
:10081000FBE0082E00F2F580DFE816F00900210069
:10082000460055006E008000A700BC00E50059801E
:1008300041881A710288C80605D5120A02F006021C
:1008400042F0F00205E002F0FE028F0748BF42F0DE
:1008500001027849012018704A624860D7E02606F4
:1008600000F18580640601D401204AE040253D6303
:100870004588704CEE0606D51A7102221A7002786D
:1008800059806262C3E0AF0740F182801A7100EBC9
:10089000C20212895980012A4FF00701197040F0F5
:1008A000B68008226260B2E0260660D4640601D4F5
:1008B000022026E040243C63448814F0020F14BF59
:1008C0000326052692E7598041881A710288C806D6
:1008D00043BF120A02F0060242F0F00202F0FE02EA
:1008E0004F074FF004011970524948BF42F001020E
:1008F000012048604A628AE0260638D4640604D49F
:100900000420187059801A7181E040243C634488A7
:1009100067073DD51A715980072277E000EBC204C2
:1009200025898D4218D84188013201F00404A4B20F
:10093000D2B214B10021032658E711F0010106D00C
:100940005C801A7108221A7002213A4A40E0012A9A
:100950007FF64CAF5980F4E71A716268481C515C0D
:10096000344A58805162062250E026060AD51A7190
:10097000802259802A63FF225A7008221A700222AC
:100980006A6044E0640601D40620BAE740243C6370
:1009900005262BE707265980A106274D1E701A71E0
:1009A00035D500EBC20211896C8822488C42C0699F
:1009B00003D25268661C6E80105558881D4A8842C2
:1009C00008D3012904BF08215160082119700221B0
:1009D00051601CE004240129546018D00139884278
:1009E00015D10821F4E708201A71E2051870598022
:1009F0000DD5104A4FF4807111630F4A092111700F
:100A000005E01A71FB2259805A7009221A70197870
:100A1000094A09290BD107480021416392F90100D5
:100A2000012808BF5170587802E0FC2000E0012046
:100A300040B2F0BD00A00040040F0020154B9842CA
:100A400024D18368DB0744BF202343604B889A0787
:100A500001D50A89D2B1580701D50B8AB3B10E4B23
:100A6000002201201A711A7058705A809960094B3F
:100A7000C0225A609A6A0748920648BFDA69074A54
:100A80001A634FF4FC625A63FFF7A6BE6FF00300CF
:100A9000704700BF00A00040040F0020CFFF0100FE
:100AA000044B41F67132DA639A6822F001029A60CF
:100AB0000CF09EBE00000C400B4B59691A6901F006
:100AC0000F01C2F3811242EA810282701A6902F0B8
:100AD0003F0242709A69DB6902F0F002C3F303132C
:100AE00013430370704700BFD0FF0FE072B6044B92
:100AF0001A68511C1CBF01321A601868704700BF89
:100B000018280020034B186818B10138186000B984
:100B100062B67047182800201FB5002101A801F017
:100B2000B1FE18B101A806F01BF800E0022005B0E4
:100B30005DF804FB08B5094B00221A7001F07AFD3C
:100B400028B90A20064940F2F7420CF069FB054B30
:100B50001879BDE8084001F067BB00BF840F002092
:100B6000F8F0000014020020074B10B51B780BB9F9
:100B700001F08EFD054C20460CF044FD2079BDE8C7
:100B8000104001F06BBB00BF852E00201402002036
:100B900008B501F0C5FD082803D1BDE8084001F003
:100BA00099BE08BD1FB5134B0E2201A801211A7072
:100BB00001F068FE28B90A200F4940F221520CF0DA
:100BC0002FFB0E4BBDF804201A80BDF806205A807A
:100BD000BDF80820A2F6B8329A80BDF80A20DA8063
:100BE000BDF80C201A81BDF80E205A8105B05DF8C1
:100BF00004FB00BF840F0020F8F00000FC0100207F
:100C0000FFF7B2BF01F09EBD01F064BD044A0123AD
:100C10001370044A1278022A04BF034A1370704703
:100C2000B42E002070010020CC2E0020024A0023A8
:100C30001370024A13707047B42E0020CC2E00208F
:100C400008B501F06DFDB0F120035842584108BDD0
:100C500008B5FFF7F5FF08B901F070FABDE80840E4
:100C600001F0CABF08B501F05BFD10F4DF6F0CBFE7
:100C70000020012008BD000030B585B00446FFF714
:100C8000F1FF08B901F05AFA01F04AFD2028474D5A
:100C900006D12B78A34200F0878001F0ADFF11E070
:100CA00001F03EFD402810D12B78A342404B04D0E8
:100CB000404A12780AB91A7822B100221A7001F05B
:100CC000C7FF71E03C4B01221A702A783B4B2C7015
:100CD0001A703B4B1A78384B002A60D14C2C0AD141
:100CE000384D0322A5F86420374A2A60374A6A60E3
:100CF000374AAA600CE04D2C54D01A784B2101FBE6
:100D00000241344A52F82150334A002D08BF15469B
:100D1000A4F14C02D2B2012A42D9304A125D1A70B3
:100D20002F4B9D4237D101A8012101F0ABFD28B91D
:100D30000A202C4940F2C9620CF072FA2A4BBDF825
:100D4000042042F623411A80BDF80620A2F5FA726B
:100D500092B28A4298BF42F624425A80BDF80820D7
:100D6000BDF80A10A2F6B83292B2B2F5E15F38BF10
:100D70004FF4E15201F6AC5189B29A8045F6EC622B
:100D8000914288BFDA80BDF80C2098BFD9801A81C3
:100D9000BDF80E205A81284601F0F2FD04E0134D03
:100DA0000122BCE7074DB3E705B030BDB40F00200A
:100DB000AC2E0020D32E0020840F0020180F00201E
:100DC0006C2E002008010020F0ED000008EE00006D
:100DD00020EE0000ECFF000000290100CC21010002
:100DE000C4F20000F8F00000FC010020802801009F
:100DF000032930B500F1FF301A4C09DC00EB40004C
:100E0000014402EB4102184D033A55F8222005E057
:100E100004290CBF154A164A52F820202260216886
:100E200021B91448BDE8304001F094B9002BB1F865
:100E30006400114A01DD834202DDA2F8640001E092
:100E4000A2F86430B2F864400023A34205DA51F8F6
:100E5000230042F823000133F7E74D20BDE830407E
:100E6000FFF70ABF5C0F0020C0130100E833010048
:100E70003CF2000038F100000801002013B52220E8
:100E800001A90BF0C9FD28B93D212220ADF80410BD
:100E90000BF08EFF0024E0B206F0DCFAA0F10B03A9
:100EA0009BB22C2B10D902A900230A2821F8023D5D
:100EB0000FD83A200BF0B0FDBDF806103A200131F2
:100EC00089B2ADF806100EE0BDF8043083420ED2B0
:100ED000E9E73B200BF0A0FDBDF806103B200131F7
:100EE00089B2ADF806100BF063FF002003E0013477
:100EF000062CD0D1012002B010BD0000014B1878A3
:100F0000704700BF7001002038B50B4B0B4C01221D
:100F10001A700B4B002520461D600CF073FB40F24D
:100F2000A373204623600CF031FB29460548BDE839
:100F3000384001F0A7BC00BF600F0020F80000207F
:100F4000880F0020660F002008B504480CF05AFBFB
:100F5000034A00231370034A137008BDF8000020F1
:100F6000100F0020600F00207FB5FFF77BFE08B94F
:100F700001F0E4F86846002101F084FC28B90A2059
:100F8000224940F60B020CF04BF92148BDF8003025
:100F900003A90380BDF802304380BDF8043083808C
:100FA00045F2E133C38045F68C23038146F60803FE
:100FB000438105F07FFDBDF8122042F6F7239A42E7
:100FC00002D842F6F82303E045F688639A4203D933
:100FD000ADF81230012300E00023BDF8142043F6E1
:100FE0005F318A4202D843F6603304E0B2F5E14F44
:100FF00004D94FF4E143ADF8143000E01BB103A86D
:10100000034905F080FD07B05DF804FBF8F000002F
:10101000900100201FB5FFF725FE08B901F08EF8FA
:1010200001AC2046002101F02DFC28B90A20074917
:1010300040F66E020CF0F4F80023E15A044A99528B
:1010400002330C2BF9D104B010BD00BFF8F0000042
:10105000D801002010B512480CF0D4FA02F0F0F9D3
:10106000044602F0F3F940B94CB1012C09D00D4B04
:101070000D48022C08BF184604E00C4802E00C485A
:1010800000E00C480023C15A0B4A995202330C2B42
:10109000F9D1BDE810400248F62303600CF076BA9F
:1010A000EC000020A0EA0000B8EA0000ACF200006A
:1010B00070EA000088EA0000900F002070B5044636
:1010C0000D461646FFF7CEFD08B901F037F8204669
:1010D000314601F06BFBFFF7BDFF0CB90B2201E0BD
:1010E00015B10122014B1A7070BD00BF840F0020A2
:1010F00038B5104C054620460CF084FA4FF4F573D1
:10110000204623600CF042FA0B4B00221A700B4968
:101110000B4A0C4B2DB164200880C8211180962207
:1011200006E0FA2008804FF4967111804FF4AF72F8
:101130001A8038BDF0010020B50F0020580F0020A4
:10114000140F0020B20F002008B5084B00220848F9
:101150001A700CF057FA074B64221A80064BC8220B
:101160001A80064B96221A8008BD00BF110F00207E
:10117000F0010020580F0020140F0020B20F0020B3
:1011800008B5FFF76FFD08B900F0D8FF084B002243
:1011900008481A700CF036FAFFF7D6FF01F0C0FAD3
:1011A00010F4906F03D0BDE8084001F093BB08BD78
:1011B000120F0020EC0000202DE9F04F1C2887B012
:1011C00023D011D8072800F0F783132800F0CE8130
:1011D000062840F01584FFF79FFC9F4B18700720EE
:1011E00001F022F800F019BC4F2800F0DB835028F2
:1011F00000F0DE834E2840F00384984B012298488B
:101200001A700CF0FFF900F008BC964800F0A2FF3D
:10121000232001F009F8944B1A781C46002A00F0AC
:101220008E81924E3378E3B1914800F093FF0CF039
:10123000A7F90CF049FC86A3D3E900230CF0D4FDF8
:101240000CF042FF00B200F06DFF8A4800F082FF10
:10125000002001210BF0A4F8874800F07BFF002359
:1012600033702278012A40F09780844C2368002B49
:1012700046D1834B1A781D4632B1824B1B681BB98D
:101280000CF07EF9804B18602B78002B59D07F4BE7
:101290007F4A1878194610B91378002B51D012786C
:1012A0007B4B32B90A7001221A704FF0FF33236072
:1012B0006DE000251D704FF0FF332360754B7648BD
:1012C0001D60704B1D6000F045FF0CF059F90CF0EB
:1012D000FBFB5FA3D3E900230CF086FD0CF0F4FECA
:1012E00000B200F01FFF634800F034FF28460121E0
:1012F0000BF056F8604800F02DFF0123337046E0F4
:10130000664909782239C9B2032901D822603EE032
:10131000012B0CD15F4B1A6801321A60584B1B78B5
:10132000002B34D0574B1A6801321A602FE0022B81
:1013300007D0584B1A685A4B1B689A420BDA0023A5
:101340002360FFF7D3FB574B5A6842F480225A6060
:10135000FFF7D8FB1BE04A4B1B78002B00F05283B1
:10136000514B1B784BB10CF00BF9474B4F4A1B68A4
:101370001268C01A904207DC44E3424B1A684C4B97
:101380001B689A42C0F23E83404B01221A702368C8
:1013900001332360032BCCE0022A40F0D080374C8D
:1013A0002368002B40D1364B1B78002B00F0BD800A
:1013B000344B1A681F461AB90CF0E2F8324B186029
:1013C000324A334B157845BB1A78002A00F0AD80BD
:1013D0001D704FF0FF3323602E4B2F481D603D6082
:1013E00000F0B8FE0CF0CCF80CF06EFB18A3D3E9BB
:1013F00000230CF0F9FC0CF067FE00B200F092FE46
:101400001C4800F0A7FE284601210AF0C9FF1A482F
:1014100000F0A0FE0123337087E00021117001224B
:101420001A704FF0FF335DE0012B06D1FFF75EFB32
:101430001C4B5A6842F4802274E01849097822391A
:10144000C9B2032936D822606FE000BFAFF3008035
:101450000000000080848E4070010020110F0020E9
:10146000F001002044F10000752E0020040100204E
:1014700056F10000FF4101009B4B01008C0F002042
:10148000902E00208C2E00208C010020190F0020AF
:10149000B60F0020C42E002069F10000180F0020B4
:1014A000882E0020D42E0020762E0020702E0020C2
:1014B000BC2E0020022B0CD19B4B1A6801321A6003
:1014C0009A4B1B78002B30D0994B1A6801321A6066
:1014D0002BE0032B29D0944B1A68964B1B689A4239
:1014E00002DA0023236020E0904B1B78A3B1924BDB
:1014F0001B7853B10CF044F8904B914A1B6812686A
:10150000C01A904200F3858206E0894B1A688D4B21
:101510001B689A4280F27D82FFF7E8FA8A4B5A688C
:1015200042F400425A60FFF7EDFA2368013323606A
:10153000042B04DD854A002313607B4A1360844B2F
:10154000844C1A781D464AB1FFF7D0FA7E4A536898
:1015500043F400435360FFF7D5FA04E0237813B156
:10156000042009F01DFC2B78237056E2FFF7D4FA13
:10157000794C05462378834212D0784800F0EAFD82
:10158000284600F0CFFD764800F0E4FD207800F01A
:10159000C9FD744800F0DEFD3520257000F044FEE2
:1015A000714E3378002B00F093807048002101F0D9
:1015B00069F9002800F08C806D4C6E4F002338785C
:1015C00021681D4698461A46A146684C33F804C067
:1015D000694C33F804E023F804C0CEEB0C0E8EEA1D
:1015E000EE7AAAEBEE7ABAF1320FC8BF42F00102EE
:1015F000D2B2624C40B1DFF8B0A133F80AA0CAEB16
:101600000C0C24F803C000E0E05215F0FF0F0AD1E3
:1016100081EAE17CACEBE17CBCF1320FC4BFC90FC5
:1016200081EADE7871460233062B05F10105CCD143
:10163000534BC9F800101B78002B18BF002248B389
:10164000B4F900304D49002BB8BF5B42B3F5FA6FD7
:101650000FDA4B8818B20028B8BF4042B0F5FA6FD5
:1016600007DA898808B20028B8BF4042B0F5FA6F9F
:1016700001DB01210CE003F2CF7398B240F69E73B8
:10168000984207D801F2CF7189B2994202D800215D
:101690003C4B19705AB1362000F0C6FDB8F1000F6E
:1016A00002D04D2000F0C0FD374B1B7883B13B7852
:1016B00073B12188334A002301F2CF71137089B2CC
:1016C00040F69E72914298BF2A4A337098BF1370B9
:1016D0002E4A13782BB92E4B1B78002B00F0588123
:1016E0003DE12C492C4F2D4E2D4D2E4CDFF8BC905A
:1016F0000023DFF8BC803B8033802B802380A9F857
:1017000000300B800123137098F800300320013360
:1017100088F8003005F06AFE00284FF0030049DA2F
:1017200005F064FE404247E0C42E0020902E0020C9
:101730008C2E0020882E0020762E00208C01002088
:10174000702E0020BC2E0020D42E00208C0F0020F4
:101750006C2E0020B72E0020700100207AF10000CE
:101760008FF100009B4B0100600F00203C0F002018
:10177000880F00201A0F0020660F00209C0F002009
:10178000CF2E0020CC2E0020100F0020110F0020A3
:10179000120F0020620F00201C0F0020720F00208B
:1017A000640F0020160F0020900F00201E0F002055
:1017B000B50F002005F01AFEDC28D4BF0020012060
:1017C0000190002005F012FE954B1880012005F0D5
:1017D0000DFE944B1880022005F008FE924B1880F5
:1017E000032005F003FE914B188098F80030082B79
:1017F00040F295808E4A013B13708E4BB7F8008003
:10180000B3F800908C4BB5F800C0B3F800E0308816
:10181000002321881A465FFA82FADFF804B2BAF18F
:10182000030F3BF803B0DFF8FCA10FD83AF803A090
:10183000D944D044DFF8F0A11FFA88F833F80AA0A1
:101840001FFA89F9D4441FFA8CFC0CE03AF803A083
:10185000DE445044DFF8D0A180B233F80AA01FFA6A
:101860008EFE514489B20132082A03F10203D2D11B
:10187000704B714AA3F80090704B3080187821802B
:10188000A7F80080A5F800C0A2F800E019460028DB
:1018900047D16B4B1B78002B43D1DFF8E481DFF895
:1018A000E4C1DFF8E4E188F800308CF800308EF80D
:1018B0000030644BB2F900000FFA89F11A880B1A54
:1018C0009342434602DC411A914201DD01221A7023
:1018D0005D4AB7F90010B6F9000012880E1A964258
:1018E00002DC411A914204DD584901228CF80020A3
:1018F0000A70574AB5F90010B4F9000012880C1AA2
:10190000944202DC411A914204DD504901228EF8D2
:1019100000200A701B7813B1492000F085FC0023D9
:1019200008E0019B002BFAD0484B01221A700023DB
:101930000B70F4E73A4A1A449189D181394A1A4422
:101940009189D181384A1A449189D181374A1A4400
:101950009189023B13F10E0FD181EBD1BBE63D48DB
:10196000002100F08FFF394B01221A7000243A4BFE
:10197000E25A384BE35AD31A1BB2002BB8BF5B4272
:10198000962B02DD492000F04FFC0234062CEED1EC
:10199000324C20460BF036FE6323204623600BF0CA
:1019A000F5FD3AE02E480BF02DFE01222D4B01E013
:1019B0002D4B01221A7030E02C480BF023FE03A8B7
:1019C000012100F05FFF28B90A20294940F6D22200
:1019D0000BF026FCBDF80C20264BA2F6B8321A807C
:1019E000BDF80E205A80BDF810209A80BDF8122054
:1019F000DA80BDF814201A81BDF816205A810CE057
:101A000001BE0AE0FFF772F81B4B5A6842F400422D
:101A10009DE41A4B01221A7087E507B0BDE8F08FEC
:101A2000200F0020480F0020A20F0020740F00207C
:101A3000B50F00201E0F0020620F0020772E00201F
:101A4000CF2E0020580F0020140F00201A0F002066
:101A5000B20F0020300F0020900F00201402002051
:101A6000EC000020120F0020100F0020E0000020EA
:101A7000F8F00000FC010020D42E0020190F0020F7
:101A8000B52E0020D22E0020CD2E0020AFF30080F6
:101A90000138C0B20D2803D8024B53F8200070471C
:101AA0000148704704FA000070EA000008B50548D4
:101AB00005F056F8044B012816BF002218701A7062
:101AC00008BD00BF74010020AD2E0020014B33F88B
:101AD00010007047601E010008B5FFF7E7FF074AD6
:101AE000074B118819805188598091889980D18835
:101AF000D9801189528919815A8108BD7401002049
:101B0000A80100202DE9F041454D86B06E462C46D7
:101B10000FCC0FC694E80300424B4FF0000883F847
:101B20000080414B86E8030083F800803F4B694604
:101B3000082083F800800AF06FFF0DF102010646CD
:101B400009200AF069FF3040C6B201A90A200AF054
:101B500063FF0DF10601064035200AF05DFF02A982
:101B6000064036200AF058FF0DF10A0106403720E2
:101B70000AF052FF002E39D0002837D02F466E468B
:101B80000FCE0FC796E8030084E80300FFF7A4FF19
:101B9000284604F0E5FF0128254A264B0CD1107099
:101BA00095E8070083E807001A88A2F57A721A8080
:101BB0009A88A2F6B8320CE082F8008095E8070017
:101BC00083E807001A88A2F57A621A809A8802F5DB
:101BD000FA6292B2B2F5E15F05D345F610118A427E
:101BE00028BF0A4601E04FF4E1529A80124A0023CE
:101BF0001370124A01201360114A1060114A1370C9
:101C0000114A1360114A1370114B04221A60114BD0
:101C10004EF2E2421A60104B187006B0BDE8F08137
:101C200074010020B52E0020D22E0020CD2E0020E1
:101C3000AD2E0020C0010020752E0020C42E0020F3
:101C4000882E0020902E00208C2E0020762E002042
:101C5000BC2E0020702E002004010020F7B5FFF7F5
:101C600001F808B900F06AFAFEF7EAFF08B100F0DF
:101C700065FA0324E0B205F0CBF9064608B100206E
:101C80007CE00134062CF5D1FFF76EF9FEF744FF36
:101C90003B4F01283870F2D83A4D3B4C2B882380BB
:101CA0006B886380AB88A380EB88E3802B892381DA
:101CB0006B896381FFF710FFFFF7F8FE3978334A2D
:101CC0000129334B0CD1117094E8070083E8070019
:101CD0001A88A2F57A721A809A88A2F6B8320BE0B6
:101CE000167094E8070083E807001A88A2F57A6264
:101CF0001A809A8802F5FA6292B2B2F5E15F05D3D2
:101D000045F610118A4228BF0A4601E04FF4E1521D
:101D1000694608209A800AF07FFE0DF10201092031
:101D20000AF07AFE01A90A200AF076FEBDF800103A
:101D30000B200BF03DF8BDF802100C200BF038F82A
:101D4000BDF804100D200BF033F8298808200BF0A3
:101D50002FF8698809200BF02BF8A9880A200BF0CE
:101D600027F8E98835200BF023F8298936200BF075
:101D70001FF8372069890BF01BF8012003B0F0BD74
:101D8000700100209001002074010020AD2E002081
:101D9000C001002010B50022815A0C4BD1520232F2
:101DA0000C2AF9D140F6B8329A8101244FF4FA6234
:101DB0001C7518461A61194604F0A5FE044B4D2007
:101DC000A3F86440BDE81040FEF756BF2002002093
:101DD00008010020024B182202FB0030704700BFB0
:101DE00020020020014BA3F8640070470801002086
:101DF000004870470801002072B6044B1A68511C55
:101E00001CBF01321A601868704700BF18280020F4
:101E1000034B186818B10138186000B962B67047F2
:101E20001828002010B509F0F7F8044609F0A8FBBF
:101E3000094A107008B1022000E003200AF0D8F827
:101E40000648C42202600BF0A1FB002017210BF012
:101E5000D7F9204610BD00BFBC0F0020140300209E
:101E60002DE9F84F002009F02DF90446012009F072
:101E700029F9704D06462B78A8465BB109F080FB26
:101E8000074638B902200AF019F903200AF0B0F821
:101E90002F700EE098F800305BB909F071FB40B18B
:101EA00003200AF00BF902200AF0A2F8614B01228C
:101EB0001A70614BDFF8A481B3F900209946B24251
:101EC0005E4D5F4F03D1B8F90030A34265D0002CBE
:101ED0005FDD002E5DDD41F69913734342F26661CA
:101EE0007143584A1B0C1380574B090C198009B2D7
:101EF00000208C42287092469B4606DC09F040FB8D
:101F000018B9252000F090F943E0BBF90030A34256
:101F10003FDA4DF6991171434C4B090C198009B207
:101F20008C4217DB05232B703B7893B3444B4FF067
:101F3000000A83F800A009F0BDF8504608F01EFF23
:101F4000FFF75AFF424B5A6842F002025A60FFF70D
:101F50005FFF1EE0BAF900306420E21A4243CB1A58
:101F6000B2FBF3F252B2092A344B01DC00220FE03B
:101F7000122A01DC01220BE0262A01DC022207E002
:101F80003A2A01DC032203E04E2AD4BF04220522B0
:101F90001A70A9F80060A8F8004095F900302D4C9F
:101FA00033B994F90030002B02DD032009F0FAFF69
:101FB0002B7823703B789BB109F0E2FA044678B99C
:101FC0001F4B187009F076F8204608F0D7FEFFF78F
:101FD00013FF1F4B5A6842F002025A60FFF718FFC6
:101FE0003B78BBB909F0CCFAA0B195F90030042BCD
:101FF00010DC09F03BF868B1114B0120187008F0B3
:10200000BDFEFFF7F9FE124B5A6842F004025A6017
:10201000FFF7FEFE95F9000008F09CFE0E4840F226
:10202000A27303600BF0B2FABDE8F84F002017214D
:102030000BF0E6B8BC0F0020BE0F0020C00F002040
:10204000C10F0020C40F0020B80F0020C20F0020D5
:10205000D42E00201003002014030020BA0F00200B
:1020600009F08EBA014B1878704700BFC10F0020ED
:1020700008B509F085FA30B9034B93F90000002840
:10208000D4BF0020012008BDC00F0020014B4140FB
:10209000585C70474837010010B50A44914209D096
:1020A00011F8014B044B4440E4B253F8243083EA66
:1020B0001020F3E710BD00BF4838010030B5002202
:1020C00085B001AD0023535501320A2AF9D1144AD3
:1020D000D1184C68A04209D39A5C001B04AC22447E
:1020E00012F80C4C4978214402F80C1C0833B3F563
:1020F0009C7FECD100242346285D00B923B1303009
:10210000C0B209F081FA01230134092CF4D19DF801
:102110000D003030C0B205B0BDE8304009F074BAEF
:10212000483C010010B5041E03DA2D2009F06CFABA
:102130006042BDE81040FFF7C1BF000008B50A20AB
:102140000349F7220BF06CF8BDE8084009F0ECBA3F
:10215000803D010038B5054608B9FFF7EFFF0024C0
:102160002B5D5BB1402C09D00A2B02D10D2009F068
:102170004BFA285D09F048FA0134F1E738BD38B56B
:1021800048F69F43994205460C4601D9FFF7D6FF12
:10219000032D0BD8C4EB043448F69F43B4FBF3F48F
:1021A000B4F5805F03D3FFF7C9FF00E001BEA0B222
:1021B00038BD032810B50C460CD8B1F5805F48F641
:1021C0009F43A8BFC1F30B045C4340F6FF7394FB2D
:1021D000F3F400E001BE48F69F439C4201D9FFF7AB
:1021E000ADFFA0B210BD000072B6044B1A68511CBE
:1021F0001CBF01321A601868704700BF1828002001
:10220000034B186818B10138186000B962B67047FE
:1022100018280020034B00221A6001205A609A609F
:10222000704700BFD42E0020512810B5044601D9B4
:10223000FFF784FFFFF7D8FF6209012004F01F04B5
:1022400000FA04F4044B53F822100C4343F82240E4
:10225000BDE81040FFF7D4BFD42E0020512810B5A0
:10226000044601D9FFF76AFFFFF7BEFF62090120AC
:1022700004F01F0400FA04F4054B53F8221021EA7D
:10228000040443F82240BDE81040FFF7B9BF00BF87
:10229000D42E0020512810B5044601D9FFF74EFF77
:1022A000064B620953F8223004F01F04012202FA9F
:1022B00004F41C420CBF0020012010BDD42E0020CD
:1022C00038B5FFF791FF164A13682BB953682BB93D
:1022D0009368022473B102E0002400E001245D420F
:1022E0001D4052F8243023EA050342F82430FFF75A
:1022F00087FF25B930BFBDE83840FFF781BF6401D3
:102300001F34B5FA85F5E4B2651BEDB2512D01D944
:10231000FFF714FF034B284653F82530984738BD84
:10232000D42E0020D43D010010B50024034BE35807
:10233000984710B10434582CF8D110BD1C3F01004F
:10234000052870B506460D4601D9FFF7F7FE0A4B82
:102350002846282404FB06340BF040F801462046AA
:102360000BF029F8281D0BF039F80146201DBDE8B7
:1023700070400BF020B800BFC80F0020052838B50A
:1023800004460D4601D9FFF7D9FE034B282202FB74
:102390000434258438BD00BFC80F0020052838B597
:1023A000044601D9FFF7CAFE28235C43054D04F11A
:1023B0001800284400210AF0E9FF0BF0E1F82C4452
:1023C000606238BDC80F002070B5134C0025201F77
:1023D0004FF400410AF0EFFF204647F6FF710AF084
:1023E000EAFF201D4FF000410AF0D0FFEEB204F1E9
:1023F0000C006FF000410AF0C9FF30460021FFF7E2
:10240000BDFF01353046FFF7C9FF062D04F1280452
:10241000DDD1012070BD00BFCC0F002005282DE9C3
:10242000F74F05460F469346994601D9FFF786FEBA
:1024300007F16043B3F5804F01D3FFF77FFE0BF147
:102440006043B3F5804F01D3FFF778FE09F1604395
:10245000B3F5804F01D3FFF771FE0BF091F8384BC5
:10246000282404FB053404F11808824640460AF08B
:1024700093FF626A0646C2EB0A02282AA8BF2822F6
:10248000142A054639DD384601920AF0A7FF0546B1
:1024900058460AF0A3FF238C019A2DB25A4300B28A
:1024A0002D1A002E05FB02F305DD6FF00042921B92
:1024B0009A4207DB04E003D0C6F10042934204DBFA
:1024C0001E4404E06FF0004601E04FF0004604F1C6
:1024D00008000AF061FF054604F110000AF05CFFF5
:1024E000AE4203DBB042B4BF054635461DB16D00B8
:1024F000022395FBF3F5C4F824A038460AF06EFFDA
:102500004FF4004795FBF7F7074420460AF066FFB3
:1025100086B2201D0AF062FF33B29F4204DB86B20E
:1025200033B29F42D8BFBEB2484631460AF043FF9D
:102530004046294603B0BDE8F04F0AF027BF00BF70
:10254000C80F002008B5094B1A88B2F5807F05D066
:1025500002221A8004F09EFC0AF0B2FC0020FFF771
:1025600063FEBDE808400620FFF778BEA01C0020EF
:10257000284B70B501241C80274B284A1C7000236F
:102580001370274A05211160264A86B01370264A27
:10259000264E137042F64473ADF8003042F62443E1
:1025A000ADF802304FF4E153ADF8043042F6942315
:1025B000ADF8063043F6FC23ADF80830684640F627
:1025C000B8333146ADF80A3004F09DFA47F2A03333
:1025D000ADF80C3046F22073ADF80E3045F610130E
:1025E000134DADF8103045F6EC63ADF8123047F2FC
:1025F000E403ADF8143003A847F230532946ADF890
:10260000163004F080FAF388EA882046F280EB80E6
:1026100006B070BDA01C0020CC2E0020B62E0020DD
:10262000C82E0020D02E0020A42E0020782E0020BE
:10263000982E002038B50120FFF72CFE10B1FFF7CF
:102640007DFD04E00520FFF725FE0028F7D10E4DA3
:102650002B88012B09D0022B08BF002002D0042BAD
:102660000ED00620FFF7E0FD0AE00AF007FC044662
:1026700038B104232B80054B1879FFF7D5FD00E016
:102680000124204638BD00BFA01C002028030020E4
:1026900010B50120FFF7FEFD10B1FFF74FFD04E07C
:1026A0000520FFF7F7FD0028F7D1084B084C012261
:1026B0001A8004F0EFFB0AF003FC20460AF0A2FFA8
:1026C0002079BDE81040FFF7C9BD00BFA01C002065
:1026D00028030020014B40221A807047A01C0020D4
:1026E00010B50120FFF7D6FD10B1FFF727FD04E07C
:1026F0000520FFF7CFFD0028F7D1074B1A881C46AD
:10270000012A05D10A20054940F2E2220AF088FD9B
:102710004FF48073238010BDA01C0020743F010083
:10272000014B1888704700BFA01C0020044B40F2EA
:1027300007121B881A4214BF00200120704700BFF7
:10274000A01C002038B50120FFF7A4FD10B1FFF751
:10275000F5FC04E00520FFF79DFD0028F7D1FFF709
:10276000E5FF28B90A200F4940F231220AF058FD4E
:102770000025ECB2032C204602D004F0EBFB0AE06B
:10278000002104F047FD2046002104F075FD20469D
:10279000002104F0AFFD0135062DEAD1024B0822DD
:1027A0001A8038BD743F0100A01C002070B504469B
:1027B00001200D46FFF76EFD10B1FFF7BFFC04E0EE
:1027C0000520FFF767FD0028F7D1FFF7AFFF28B915
:1027D0000A2025494FF427720AF022FD234B244A90
:1027E0001D70244B00211170197015461E46042CD3
:1027F00038D8DFE804F00328371C28001E4B80225D
:1028000000201A8004F0A6FB012004F0A3FB0220A4
:1028100004F0A0FB032004F08BFB042004F088FBF1
:10282000052004F085FB154B01221A7070BD124B78
:10283000802200201A8004F07BFB104B00221A70CB
:102840000123337070BD0C4B80221A800C4B1B7817
:1028500013B1002004F07EFB084A0123042C1370FE
:1028600008BF2B7070BD00BF743F0100991C002091
:10287000101D0020981C0020A01C00203403002004
:10288000B52E0020F8B5064601200F46FFF702FDE1
:1028900010B1FFF753FC04E00520FFF7FBFC002814
:1028A000F7D100240125E0B204F0E2FE4FF6FF73F9
:1028B00026F81400013498420CBF002505F00105EC
:1028C000062CF0D11FB13046314604F01CF92846E1
:1028D000F8BD0000F8B50120FFF7DCFC10B1FFF7F0
:1028E0002DFC04E00520FFF7D5FC0028F7D1FFF709
:1028F0001DFF28B90A201E494FF498720AF090FC77
:102900001C4B1D4E00241C70338803F4D1635BB351
:10291000E5B2284604F0ACFE4FF6FF739842074636
:1029200005D10A2012494FF4A1720AF079FC284619
:1029300004F0FEFA022D05D93388B3F5806F05D077
:10294000802B03D02846394604F0F6FD0134062CCE
:10295000DED10A480121FFF795FF28B90A20044972
:102960004FF4A5720AF05CFC10233380F8BD00BF61
:10297000743F0100101D0020A01C00208A1C0020B4
:1029800038B5014668222C480BF06AFE0120FFF79B
:1029900081FC10B1FFF7D2FB04E00520FFF77AFCC1
:1029A0000028F7D1FFF7C2FE28B90A20234940F2D8
:1029B0005D120AF035FC204800F066FE204B1860DE
:1029C000204B1A881D4602F422725AB91E48012172
:1029D000FFF758FF70B90A2018494FF4B6720AF091
:1029E0001FFC07E00024E0B2013404F0A1FA062C39
:1029F000F9D1EBE709F01CFB0F49144A124800F02B
:102A000061FE124800F057FE114B00221860114B76
:102A100006241A800AF0B4FD0F4B186000205821DC
:102A200004F0AAFA013CF9D120232B801C20BDE838
:102A30003840FFF713BC00BFA81C0020743F010002
:102A4000A41C0020A01C00208A1C0020C010002014
:102A5000181D0020961C0020141D0020F0B5012038
:102A600085B0FFF717FC10B1FFF768FB04E0052005
:102A7000FFF710FC0028F7D1574B1B8803F06003C9
:102A80002BB90A20554940F293120AF0C9FB01A85C
:102A90000021FFF7F7FE28B90A2050494FF4D472FD
:102AA0000AF0BEFB002004F0A7FA0028BDF80430AD
:102AB00005DA03F57A73ADF804300F2705E0A3F5C6
:102AC0007A73ADF804304FF6F177BDF80820BDF801
:102AD0000630A2F57A72A3F5695392B23D3BADF888
:102AE00008209A1805D448F69F439A4202DC93B214
:102AF00000E00023ADF80A30394B41F26E721B88BA
:102B0000A3F56753113B9BB2934204D94FF6FA7574
:102B10004FF6FB7607E0334B1A8843F697239A4229
:102B2000F4D800252E462021002004F025FA10219B
:102B3000022004F021FA1021032004F01DFABDF850
:102B40000410002004F0F8FCBDF80810022004F086
:102B5000F3FCBDF80A10032004F0EEFC0AF010FDAF
:102B6000214B1860214B1B782BB9214B1B7813B9D3
:102B7000204B1C78B4B10020014604F01DFA01205E
:102B8000002104F019FA0220002104F015FA0320B4
:102B9000002104F011FA0420002104F00DFA0520B0
:102BA000002115E0204639B204F006FA0120214642
:102BB00004F002FA022031B204F0FEF9032029B237
:102BC00004F0FAF90420214604F0F6F90520214624
:102BD00004F0F2F905B0F0BDA01C0020743F010024
:102BE000881C00201C1D00209C1C0020D12E0020D1
:102BF000912E0020AC2E00201FB50120FFF74AFBCC
:102C000010B1FFF79BFA04E00520FFF743FB002813
:102C1000F7D10D4B1A881C4612F0200F05D10A205F
:102C20000A4940F252220AF0FBFA01A80121FFF7FB
:102C300029FE28B90A20054940F257220AF0F0FA85
:102C40004023238004B010BDA01C0020743F01006D
:102C5000F8B50120FFF71EFB10B1FFF76FFA04E093
:102C60000520FFF717FB0028F7D1354E33885B06A8
:102C700005D40A20334940F265220AF0D1FA324CD9
:102C80003248256800F000FD8542274605D00A201D
:102C90002C4940F266220AF0C3FA2D4D2B4C2A88AB
:102CA000B4F864309A4205D30A20264940F26722DC
:102CB0000AF0B6FA274B1B781BB92988B4F86420B0
:102CC00007E0FFF795F86822014620480BF0C8FCA2
:102CD00010E01FFA83FE0EEB0100904203F10103A6
:102CE00004DA54F8200044F82E00F2E7C9B2521A70
:102CF000A4F86420154800F0C7FC0121386016488C
:102D0000FFF7C0FD1149154A134800F0DBFC1348DA
:102D100000F0D1FC124B002418602C800AF030FC2B
:102D2000104B1860E0B25821013404F025F9062C4C
:102D3000F8D1202333800C4B00221A70F8BD00BF5D
:102D4000A01C0020743F0100A41C0020A81C00202F
:102D5000961C0020D32E00208A1C0020C0100020CA
:102D6000181D0020141D0020AC2E00207FB501206E
:102D7000FFF790FA10B1FFF7E1F904E00520FFF743
:102D800089FA0028F7D11A4E3388B3F5807F05D031
:102D90000A20184940F2E9220AF042FA0024E0B27F
:102DA00004F0D8FA00F0020000F0FF05D0B90134B9
:102DB000062CF4D1E8B204F0CDFA00F0040000F0E3
:102DC000FF0488B90135062DF4D1082301A801219B
:102DD0003380FFF757FDE0B2013404F0BBF8062C56
:102DE000F9D103E0022300E00423338004B070BD76
:102DF000A01C0020743F01002DE9FF47A44B1A8856
:102E00001D46012A00F01583032819D004D8012893
:102E100040D0022841D00BE311284BD03A2828D0CB
:102E2000052840F00583042A40F00383082201A806
:102E300001211A80FFF726FD0620FFF7F5F9F8E2D9
:102E40000120FFF727FA10B1FFF778F904E0052019
:102E5000FFF720FA0028F7D12B889E0640F1E9827F
:102E60008B4B402229201A80FFF7DEF9FFF7F6FD91
:102E7000DFE20120FFF70EFA10B1FFF75FF904E07F
:102E80000520FFF707FA0028F7D104F01FF8002803
:102E900040F0CF82FFF756FBCBE20120FFF7FAF9B3
:102EA00010B1FFF74BF9F5E70520FFF7F3F900281C
:102EB000F7D1EFE70120FFF7EDF910B1FFF73EF989
:102EC00004E00520FFF7E6F90028F7D12B88012B55
:102ED00000F0AF820AF054FB6E4B6F4F1B783860E6
:102EE000002B56D06D4C6E4E2368002B04DA0AF08E
:102EF00047FB206030604CE03368DFF8E481C3EBCF
:102F00000009D8F800000AF0DFFD5DA3D3E9002333
:102F10000AF040FE5CA3D3E900230AF089FC0BF021
:102F2000D3F8814535DD5F48FFF714F9D8F8003054
:102F30002068002B3B68C0EB030008DD0AF0C4FDED
:102F40004FA3D3E900230AF04FFF0BF0E5F8FFF79A
:102F5000B5F800245448FFF7FDF8E0B204F07AFA1F
:102F60000134FFF7ABF8062CF4D15048FFF7F2F824
:102F700000244D48FFF7EEF8E0B204F037FA0134D0
:102F8000FFF7D0F8062CF4D14948FFF7E3F83B6887
:102F900033602B88202B4AD10AF0F2FA454B1E6889
:102FA000454B861B45481C6800F085FB844205D0D4
:102FB0000A20434940F2E2320AF032F9414C424BD6
:102FC000228831461A806288404B3C481A80A28889
:102FD0003F4B1A8023463F4A00F07AFC3E490646A2
:102FE000204603F067FD3D4B5EB11C784CB93A4B6F
:102FF000E0B233F81410013404F09EFA062CF6D136
:103000000CE200241C7009F013F8E6B201213046EE
:1030100003F0B2FF01343046002103F0CDFF062C4F
:10302000F3D110231C202B80FFF7FEF8F6E1102BC4
:1030300058D101AD28460021FFF724FC0024264B7F
:1030400035F8142033F81430032CC3EB02031BB201
:1030500004D1502B204604DC503306E02D2BE0B287
:1030600002DD4FF0FF3103E02D33B4BF0121002119
:10307000013403F0A1FF062CE1D1CFE1AFF30080D2
:103080000000000080848E40E90B21E7FDFFEF3F48
:10309000A01C0020B62E00203C0300203803002096
:1030A00024030020BB3F0100FF410100C73F010096
:1030B0009B4B0100141D0020181D0020C010002093
:1030C000743F01008A1C0020BC100020881C0020D6
:1030D0001C1D0020961C00207C1C0020AC2E002013
:1030E000C82E0020802B40F0B08001A80021FFF7FF
:1030F000C9FB28B90A20B34940F269420AF090F8A6
:10310000B14B1B7853B145F2E133ADF80A3045F6C7
:103110008C23ADF80C3046F6080309E045F2A41301
:10312000ADF80A3045F20823ADF80C3046F24633CC
:10313000A64C01A82146ADF80E3003F0BBFCE38895
:1031400042F69322934205D945F6EC62934228BF9A
:10315000134601E042F69423E380238943F6FB22E1
:10316000934205D947F2E4018B4238BF194601E08A
:1031700043F6FC21638940F6B7329342218105D999
:1031800047F23052934228BF134601E040F6B8336D
:1031900063818F4B1B78002B3FD08E4B1B78002B0D
:1031A0003BD08D48026802F10C034B2B036003DC1B
:1031B0006FF00702534322E0A2F140054A2D1AD9CD
:1031C000A2F18B05952D02D8A2F1D5030AE06FF488
:1031D000907555194A2D10D9A2F5B6754A2D03D808
:1031E000C2F5DB73DB000AE0B3F5E17F4FF00003CB
:1031F00005DD036003E0794B01E04FF4167343F6FD
:10320000AB72914205D946F63442914228BF11462D
:1032100001E043F6AC7119442181714B1D78002DFA
:1032200040F0FC80EEB2304604F094F8C30608D5B6
:103230000021304603F0A0FE304634F8151004F0AB
:103240007BF90135062DEDD1E8E0B3F5806F00F094
:10325000E580B3F5007F27D101A80021FFF712FB1D
:1032600028B90A20574940F2EB4209F0D9FF012062
:1032700003F05EFEBDF8062043F2C8239A42594B84
:1032800001D9002204E042F6DF618A4201D801221E
:103290001A701B78012013B143F2903101E042F61D
:1032A000186104F049F9B9E0402B40F0B7800020E4
:1032B00003F0A2FE0646002004F0DAF907460220D9
:1032C00003F09AFE0546022004F0D2F91FFA80FAB4
:1032D000032003F091FE0446032004F0C9F91FFA0D
:1032E00080F90AF04DF9DFF81081A7F53E57D8F8BC
:1032F0000010293F401A0AF0E7FB00223A4B0AF07F
:1033000073FDAAF5E45244F29233BFB2053A92B289
:103310009F4288BF002643F626439A4288BF002575
:10332000A9F52B53393B9BB243F28E32934288BFAF
:10333000002400222D4B0AF0BDFE68B366B133B203
:10334000002B04DD083E36B226EAE67603E00836B6
:1033500036B206EAE676B6B265B12BB2002B04DDD2
:10336000033D2DB225EAE57503E003352DB205EAEC
:10337000E575ADB264B123B2002B04DD033C24B289
:1033800024EAE47403E0033424B204EAE474A4B24B
:103390000AF0F6F8C8F80000154B1B7813B9154B66
:1033A0001F785FB30020014603F006FE01200021D4
:1033B00003F002FE0220002103F0FEFD03200021A5
:1033C0002AE000BF743F0100340300207C1C002071
:1033D000B42E0020CC2E0020B8100020A8FDFFFF46
:1033E000981C00202003002000808E400000F03F49
:1033F000D12E0020912E00209C1C0020384631B296
:1034000003F0DAFD0120394603F0D6FD022029B28F
:1034100003F0D2FD032021B203F0CEFD064C20467E
:103420000AF0F0F81823204623600AF0AFF800E015
:1034300001BE04B0BDE8F08728030020AFF3008090
:10344000014B1878704700BF991C0020014B187879
:10345000704700BF101D00202DE9F04385B00DF12D
:103460000408054614460E460C22002140460BF087
:103470006DF928686968231D03C3A868186004F102
:10348000100396E8070083E807000023F05AE95A82
:1034900004EB43020233411A0C2BD164F6D1002312
:1034A0001D4604F14C02D2580433002AB8BF5242E0
:1034B0009542B8BF1546182BF3D1B789A9463846AF
:1034C0000AF002FB32A3D3E900230AF0F3FD42F62F
:1034D0003B73002818BF1F46336913B963801D462C
:1034E0002AE04FF4747202FB07F0B0FBF3F081B2F4
:1034F0007943B1FBF2F1A94202DC60800D461BE08A
:1035000002FB05F1B1FBF3F302FB03F100221020F3
:1035100013464FEA917C5B000CEB820293424FEA28
:10352000810103D26FEA030C62440233013810F0C8
:10353000FF00EED15B086380C5EB09054FF4747999
:1035400009FB05F5638895FBF7F701339BB207EBA1
:1035500043070137BFB263802780002304EB430198
:10356000C96C4FF474704143E218023391FBF7F1D8
:103570000C2BA2F84010F1D198E8070004F11C03CD
:1035800083E80700337D84F8643005B0BDE8F0833C
:103590009A999999999DC7402DE9F74F8146174609
:1035A000019311B101F11C0801E0DFF8D880002679
:1035B00009EB0603B3F91C409A8807FB04F000925C
:1035C0000AF082FA00222E4B0AF00EFC824638F9ED
:1035D00006008B46A04222D0001B78430AF074FA02
:1035E0000022274B0AF000FC044638460D460AF03C
:1035F0006BFA02460B46204629460AF0CBFA0446EF
:10360000D9F800000D4640000AF05EFA02460B466B
:10361000204629460AF0E8FB02460B4601E000225C
:103620000023504659460AF003F9002200230446BD
:103630000D460AF035FD38B1204629460EA3D3E9E0
:1036400000230AF0F5F806E0204629460AA3D3E94C
:1036500000230AF0EBF80AF037FD009BC01801D5F3
:1036600001BE0020019A905302360C2EA0D103B067
:10367000BDE8F08FAFF300805C8FC2F5285CDF3FC0
:1036800000808E40D23F010038B5044621464FF0FD
:10369000FF306822FEF700FD0023B4F864205D1CB3
:1036A000DBB2934206D254F823101822FEF7F4FC42
:1036B0002B46F2E738BD014640F6BC324FF0FF30F2
:1036C000FEF7EABC2DE9F047B4B004468946174638
:1036D0000021682268460BF039F8002168221AA8F8
:1036E0000BF034F82046D9F800106A46FFF7B4FE14
:1036F0004FF00008B9F864301FFA88F49C4280F05B
:10370000DD80621C9A423ADA59F8221004A81AAAFB
:10371000FFF7A2FE9DF864E0ADF10202002300A9CC
:103720001944B1F840001AA91944B1F8401005B283
:103730000EB205FB06FCBCF1000F02F1020202DD35
:10374000BEF1000F01D0002108E0002EB8BF764284
:10375000002DB8BF6D42AE42A8BF014602330C2B0C
:103760009186DCD121AB0DAA07CA83E80700BDF81A
:103770000250BDF800006B46401B00220DE0002304
:10378000ADF83430ADF83630ADF83830ADF83A3009
:10379000ADF83C30ADF83E30E9E700A91144C96C02
:1037A0004FF47476B3F934E04E43B3F91C1004328D
:1037B000714469434FF0020E91FBFEF1711A91FBC7
:1037C000F0F1182A19857344E7D104EB4404282644
:1037D0006643BC19231D01AA07CA83E8070004F148
:1037E0001C0307AABD5107CA83E80700002500ABE8
:1037F0002B44B3F928109A88B3F91C300B44BDF858
:1038000002104B434FF4F46193FBF1F39E1801D582
:10381000FEF794FC631902350C2D9E85E7D1BDF8A7
:103820000020BDF802300AADA2EB4303A36204F10D
:10383000440395E8070083E8070004F1100304F14E
:103840002C0207CA83E80700002600AB3344B3F913
:1038500028101A8AB3F934300B44BDF802104B43D8
:103860004FF4F46193FBF1F31BB2B2EB030A01D501
:10387000FEF764FCA31902360C2EA3F854A0E4D181
:1038800095E80700BDF8023008F10108236504F14E
:103890006C0383E8070004F1380304F1540207CAFB
:1038A00083E80700603404AB93E8070084E807006E
:1038B00068461AA968220AF0D3FE1BE703EB43030C
:1038C000A7F8B83B34B0BDE8F08700000000000066
:1038D0002DE9F04F1E46B0F8B83B89B080460D4642
:1038E00091460BB9FEF72AFC954F00219548C7F881
:1038F0000080FEF7C7FFB8F8B81B386843460024BD
:103900003A461FFA84FB8B4580F04682184653F8EE
:1039100028EB2746754504F1010402D9CEEB0505D5
:10392000EFE78C424FF003031060B8BF2821BBFBC8
:10393000F3F2B8BF01FB0481A9F80020824C834A4E
:10394000A8BF002117602268BA420ED01BF1000206
:1039500097FBF3F318BF012203EB43030392FA1A18
:10396000534253412760029302E0002302930393E2
:103970002A46774BFFF710FE754ABBF1000F01D1C5
:1039800000230FE000247349105B615A704B88429A
:1039900003D37149615A884200D9E15202340A2C9A
:1039A000F1D1EDE7D15AF15202330C2BFAD16B4A27
:1039B000137811466A4A13B300236248185AD0524A
:1039C00002330C2BF9D10026664C0E706048664914
:1039D00003F070F8284626700AF066F80022634B60
:1039E0000AF002FA624B039AC3E90001614D6AB121
:1039F0000123237000220023C5E9002306E05E486E
:103A0000185AD05202330C2BF9D1DCE7D5E9002348
:103A100009F00CFF594B0025C3E900012C46A846CC
:103A20004F4B574E185B0AF03FF80B46554902467C
:103A300001EB050A4C49CAE90023085B0192009397
:103A40000AF032F82E44019A009BC6E9000109F001
:103A5000EDFE4D4B00222B44C3E900014B4B0AF015
:103A6000C3F94B4B2B44C3E90001444BD3E900237A
:103A70000AF0BAF9474B00222B44C3E90001464B38
:103A80000AF088F80022454B0AF0AEF9444B2B446B
:103A9000C3E9000126A3D3E900230AF0A5F9414BAD
:103AA0002B44C3E900012F4B1B78002B40F093807F
:103AB0003D4B3E4E1A68002A03DD2E44C6E9000144
:103AC00009E04FF0060E0EFB028E06EBCE06C6E9AD
:103AD000000101321A60D3F80090354EB9F1000FA1
:103AE00012DD324B00222B44D3E90001002309F000
:103AF0009FFE00220023CDE90601CDE904010AF072
:103B0000CFFA002856D003E000220023CDE9042399
:103B1000484609F0D9FF02460B46DDE904010AF0E8
:103B200063F905A3D3E9002309F082FE50E000BF4A
:103B30001D5A643BDF4FCD3F5C8FC2F5285CDF3FF1
:103B4000D41D0020D81D0020440300204003002085
:103B5000C81D0020782E0020982E00206003002031
:103B6000641E0020501D0020E41D002000808E40B7
:103B7000581E0020181F0020001F0020501E00208B
:103B8000201E0020A01E0020201D00200000594003
:103B9000581D0020701E002000004E40008076401E
:103BA000D01E0020F01D0020601E0020981D002067
:103BB0000C1F0020484609F087FF02460B46DDE94E
:103BC00006010AF011F986A3D3E9002309F02EFEBD
:103BD0000AF07AFA3053844EDFF85492305B09F0E1
:103BE00073FFDAE9002309F021FE0AF06DFA00B252
:103BF0000AF06CFB7D4B5FFA88FA53F828100AF044
:103C0000B9FB00F100400AF005FD29F80400504618
:103C100003F0A8FB0128764E03D0325F0AB90122D7
:103C2000A253315B50460B0448BF494289B203F0AE
:103C3000A3F9325B39F804105046114409B203F07D
:103C4000BBF96C4B08F10108E25A6B4BB8F1060F57
:103C5000E25205F1080504F102047FF4E1AE674B7E
:103C60006749D3E90023C1E90023664B1B78012B88
:103C700017D0654A127832B1029921B1042B02D1D2
:103C8000BBF1090F06E0039909B1022B09D0029993
:103C900009B1032B05D0002A00F09D80052B40F0D0
:103CA0009A805A48FEF756FA09F06AFC584A594B6E
:103CB000117811B10021186011701B680024C01A1E
:103CC000FEF730FA5448FEF745FA3846FEF72AFA6E
:103CD0005148FEF73FFA06F051FF0130FEF722FA95
:103CE0004D48FEF737FA06F03FFF0323B0FBF3F32E
:103CF00003EB4303C01A0130FEF714FA4748FEF7FE
:103D000029FA4548FEF726FA305F0234FEF70AFA30
:103D10000C2CF6D14248FEF71DFA00243E48FEF76F
:103D200019FAE0B203F07CFB0134FEF7FBF9062C34
:103D3000F4D13C48FEF70EFA00243748FEF70AFAA1
:103D4000294A394B105BE35A0234C01AFEF7EAF9EC
:103D50000C2CF2D13548FEF7FDF900242E48FEF771
:103D6000F9F9334B185F0234FEF7DCF90C2CF5D16E
:103D70003048FEF7EFF900242748FEF7EBF92C490D
:103D8000335F085F02341844FEF7CCF90C2CF3D1F2
:103D90002948FEF7DFF91EE00323BBFBF3F31060B5
:103DA000A9F80030002102683346FFF7F5FB002434
:103DB000E0B20021013403F0FFF8062CF8D11F4BCC
:103DC000002018601E4B01220D491A7000220023AA
:103DD000C1E9002300E0012009B0BDE8F08F00BF79
:103DE0005C8FC2F5285CDF3FD81D0020480300200F
:103DF0000C1F0020E41D0020001F0020581E002082
:103E0000181F0020A42E0020D12E0020DE3F01002C
:103E1000742E0020B02E0020FF410100F73F01006A
:103E2000004001000A400100641E00201340010010
:103E3000881D00201B4001009B4B0100601E0020DC
:103E400060030020AFF30080044B054A1A605A60FB
:103E50009A60DA601A615A61704700BF4803002017
:103E6000F4FD543D044B054A1A605A609A60DA60CA
:103E70001A615A61704700BF480300206F12033D6A
:103E8000044B054A1A605A609A60DA601A615A61F6
:103E9000704700BF48030020295C0F3D72B6044BF9
:103EA0001A68511C1CBF01321A601868704700BFA5
:103EB00018280020034B186818B10138186000B9A1
:103EC00062B6704718280020072904D003485629F5
:103ED00018BF002070470248704700BF0548000027
:103EE000955400004139C9B2132903D8024B53F845
:103EF000210070470020704760520100542904D00F
:103F00000348562918BF002070470248704700BF79
:103F1000E53E0000554A00004C39C9B20A2903D8D1
:103F2000024B53F821007047002070477453010082
:103F300070B5214B21491A781D462D2A14BF002344
:103F400001230C781A460020A34232DAE95C3039AA
:103F500009292ED8DFE801F005080C1014181C20E0
:103F600024280A21484322E00A21484301301EE068
:103F70000A21484302301AE00A214843033016E080
:103F80000A214843043012E00A21484305300EE07C
:103F90000A21484306300AE00A214843073006E078
:103FA0000A214843083002E00A214843093001331E
:103FB000CAE702B1404270BD69200020291F0020DD
:103FC00070B50C4A0023117815468B4205DA0A4871
:103FD0001A5C2C2A02D00133F7E770BD1A46DCB216
:103FE000141B01328A42E4B202DA865C0655F6E717
:103FF0002C7070BD291F00206920002008B50B48D7
:10400000FEF7A8F80A48FEF7A5F80A48FEF7A2F856
:104010000948FEF79FF80948FEF79CF80848FEF7A4
:1040200099F8BDE808400748FEF794B844400100FD
:1040300055400100E65101007F4001009D40010014
:10404000BD400100DE40010008B50C48FEF782F8D3
:104050000B48FEF77FF80B48FEF77CF80A48FEF79E
:1040600079F80A48FEF776F80948FEF773F8094828
:10407000FEF770F8084B00221A7008BD9B4B010038
:10408000EA400100064101002541010063410100B1
:104090007E41010086410100AE03002008B50B48B7
:1040A000FEF758F80A48FEF755F80A48FEF752F8A6
:1040B0000948FEF74FF80948FEF74CF80848FEF7A4
:1040C00049F8084B00221A7008BD00BF9B4B010045
:1040D0008E4101009F410100AB4101007E41010082
:1040E000BF410100AE030020542908B504D00548A3
:1040F000562918BF002008BD0348FEF72BF80148D9
:1041000008BD00BF05500000CC41010037B5044692
:1041100008B1544800E05448FEF71CF801A92320D8
:1041200008F07AFC5148FEF715F8BDF90400FDF7D8
:10413000F9FF0CB14E4800E04E48FEF70BF801A91C
:10414000242008F069FC4C48FEF704F8BDF8040090
:10415000FDF7E8FF0CB1464800E04648FDF7FAFFDE
:1041600001A9252008F058FC4448FDF7F3FFBDF8ED
:104170000400FDF7D7FF0CB13D4800E03D48FDF7D6
:10418000E9FF01A9262008F047FC3D48FDF7E2FFC2
:10419000BDF80400FDF7C6FF0CB1354800E0354816
:1041A000FDF7D8FF3748FDF7D5FF272501A9284699
:1041B00008F032FC0135BDF80400FDF7B3FFEDB2A5
:1041C0003148FDF7C7FF2D2DF0D10CB1284800E094
:1041D0002848FDF7BFFF2D48FDF7BCFF0E2501A9BC
:1041E000284608F019FC0135BDF80400FDF79AFFD8
:1041F000EDB22548FDF7AEFF142DF0D10CB11C48EF
:1042000000E01C48FDF7A6FF01A9382008F004FCD7
:104210000DF10601392008F0FFFB1D48FDF79AFF5C
:1042200001A93A2008F0F8FBBDF80400FDF77AFF79
:104230001548FDF78FFF3B2001A908F0EDFBBDF805
:104240000400FDF76FFF24B10948FDF783FF08481C
:1042500000E00848FDF77EFF0648FDF77BFF03B04E
:1042600030BD00BFF3410100014201000E420100D8
:10427000FF4101009B4B01001B4201002C42010049
:10428000394201004A4201008346010055420100C3
:1042900075420100F8B5284C532927780FD002D871
:1042A0003B2912D009E0542902D0562941D004E01C
:1042B000224A01231370224A13700020F8BD204BBC
:1042C000002018701D4B1870F8BDFFF731FE47F63F
:1042D000FF761C4BB042A8BF30469842ACBF0646A2
:1042E0001E46B5B2B81C2946C0B208F061FD207860
:1042F00029462E30C0B208F05BFD2946207809F02F
:104300009BF81148FDF726FF2078FDF7D7FE0F48F0
:10431000FDF720FF3046FDF705FF0D48FDF71AFFBA
:1043200008F09AFB02F096FD0948FDF713FF0948D3
:10433000F8BD0948F8BD00BF441F0020AE030020AF
:104340007C0300200180FFFF8F42010097420100A3
:104350009B4B0100AD440000B5490000542908B54D
:1043600005D0562917D04C2915D0002008BD0520AE
:1043700006F0A8FE08B909480BE0FDF773FE08B97E
:10438000074806E0042006F09DFE0028D4BF05483B
:104390000548FDF7DFFE054808BD00BFA442010047
:1043A000C8420100DB420100F54201000550000057
:1043B00037B5054608B1164800E01648FDF7CAFEB5
:1043C0000024E0B22946013408F04AF8062CF8D15E
:1043D0001148FDF7BFFE2D200DF1060108F01CFB72
:1043E000BDF80600FDF76AFE0DB10C4808E00C4868
:1043F000FDF7B0FE09F076F808B10A4800E00A4877
:10440000FDF7A8FE0648FDF7A5FE03B030BD00BFCE
:10441000104301001D43010029430100FF41010039
:104420009B4B01003F4301005043010010B504467F
:1044300060B10E48FDF78EFE0020214607F0B0FF68
:104440000120214607F0ACFF54B901E00848F1E72C
:1044500009F052F808B1074800E00748FDF77AFE76
:10446000BDE810400548FDF775BE00BF644301007C
:104470006F4301003F430100504301009B4B01008B
:10448000542908B506D0562909D006483C2918BF3A
:10449000002008BD0020FFF7C9FF002008BD02482A
:1044A00008BD00BF35520000FD3E0000542908B58C
:1044B00004D056294ED03B2918D119E02648FDF7E3
:1044C00049FE2648FDF746FE2548FDF743FE2548F0
:1044D000FDF740FE2448FDF73DFE2448FDF73AFE77
:1044E0002348FDF737FE2348FDF734FE002008BDC2
:1044F000214B1B78342B1BD009D8322B0ED012D86D
:10450000312BF3D11D48FDF725FE00221EE0362B8E
:1045100018D012D3782BE9D1194808BD1948FDF7F6
:1045200019FE012212E01848FDF714FE02220DE0E8
:104530001648FDF70FFE032208E01548FDF70AFEB6
:10454000042203E01348FDF705FE0522124B134831
:104550001A7008BD124808BD84430100964301004B
:10456000A5430100B6430100C4430100D24301004A
:10457000E6430100F94301006920002006440100E0
:1045800041470000174401002A4401003A44010059
:104590004A44010060440100441F0020954200008D
:1045A000B5490000542938B504D0562917D03C2904
:1045B00011D104E00B4C002525700B4806E0094C96
:1045C0002378102B09D8094A52F82300FDF7C2FDC1
:1045D000237801332370002038BD054838BD0548D5
:1045E00038BD00BF341F002075440100185301007E
:1045F00071680000094A0000542808B504D0562804
:1046000014D04C2806D111E0094B53F82100FDF7D6
:10461000A1FD09E0074B5B5C834205D1064B53F8D3
:104620002100FDF797FD01E0002008BD034808BD0B
:1046300038520100F0520100B05201000550000054
:1046400008460721FFF7D8BF08460621FFF7D4BF69
:1046500008460521FFF7D0BF08460421FFF7CCBF6D
:1046600008460321FFF7C8BF08460221FFF7C4BF71
:1046700008460121FFF7C0BF08460021FFF7BCBF75
:10468000542908B504D056290ED0072905D106E0D3
:104690000648FDF75FFDFCF74DFA002008BD044811
:1046A000FDF758FD034808BD034808BD9F440100BD
:1046B000AE440100E164000051480000542910B5E7
:1046C00004D0562921D03B2911D103E0134B1C788B
:1046D00054B917E0124B1B78782B0AD1114B0122E9
:1046E00011481A70FDF736FD3E20FDF79DFD0020B4
:1046F00010BD622B0BD0642B0BD06D2B0BD00B4855
:10470000FDF728FDFFF7CAFCF1E7094810BD09488D
:1047100010BD094810BD094810BD00BF852E0020FE
:1047200069200020AE0300209B4B0100B54401002E
:10473000E53E0000B94A0000FD3E0000514800007F
:10474000542910B504D056293DD03B293DD118E05D
:104750001F48FDF7FFFC1F48FDF7FCFC1E48FDF756
:10476000F9FC1E48FDF7F6FC1D48FDF7F3FC1D4B58
:104770001C781CBBE0B2013402F0ECFB062CF9D132
:1047800023E0194B1B78342B04D8312B07D2202B74
:1047900005D01AE06D2B0CD0782B0FD015E0134A02
:1047A000134813700F4B00221A70FDF7D3FC114809
:1047B00010BD0F48FDF7CEFC0F4810BD0C48FDF7AB
:1047C000C9FC0E4810BD0E4810BD002010BD00BF32
:1047D000C6440100D7440100E7440100F943010049
:1047E000FB440100852E002069200020A803002042
:1047F0009B4B010095650000AD440000E1640000A2
:10480000B5490000412910B513D007D8B1B90C48FB
:10481000FDF7A0FC3E20FDF707FD0FE0532905D072
:1048200054290BD1FCF786F9064810BDFCF79CF91A
:1048300004E0054B00221A70044810BD002010BD92
:1048400000450100C93E0000852E002039580000B7
:10485000532910B50CD005D891B90A48FDF77AFC58
:10486000094810BD542909D0562909D1074810BD5F
:10487000074B1C7824B9FCF777F901E0054810BD17
:10488000002010BD3E450100BD460000E53E000091
:10489000852E002081460000542938B504D01648E2
:1048A000562918BF002038BD0024E5B2A81C0021FD
:1048B000C0B208F07DFA05F12E000021C0B208F068
:1048C00077FA0021204608F0B7FD2046FDF7F6FBF9
:1048D0000A48FDF73FFC0020FDF724FC013408489E
:1048E000FDF738FC062CE0D108F0B6F80548FDF7D6
:1048F00031FC054838BD00BFB5490000AC4C010093
:104900005B4501009B4B0100E16400005429F8B5B0
:1049100004D02148562918BF0020F8BD1F48FDF7D4
:1049200019FC0024E5B2284602F0C0FE4FF6FF73E2
:104930009842064605D10A20194940F6565208F019
:104940006FFC2046FDF7C2F8371ABEB2A81C3146EC
:10495000C0B208F02DFA05F12E003146C0B208F0C1
:1049600027FA3146204608F067FD2046FDF7A6FBF2
:104970000C48FDF7EFFB3846FDF7D4FB01340A483D
:10498000FDF7E8FB062CCDD108F066F80748FDF7E7
:10499000E1FB0748F8BD00BFB54900005E450100D6
:1049A00068450100AC4C01005B4501009B4B0100D8
:1049B000E1640000542908B504D0562917D05329C2
:1049C00013D108E00B4A002313700B4A1370FDF754
:1049D00087FE0A4808BD0A4B1B780BB9FEF7C6F9DB
:1049E000044A01231370044A1370002008BD0548CF
:1049F00008BD00BFAE0300207C030020414700003B
:104A0000852E002051480000542908B50BD05629A6
:104A100016D0532912D10B4A012313700A4A13707E
:104A2000FEF7A4F90AE0074A00231370064A137040
:104A3000FDF756FE02F0FAFA044808BD002008BD52
:104A4000034808BDAE0300207C030020A5450000FC
:104A500051480000542938B506D056291FD03C29AA
:104A60004FF000000FD038BD0F4C00250F482560D7
:104A7000FDF770FB012007F025FDA8420C482560DA
:104A800018BF284638BD07F01DFD50B1064B1A6807
:104A9000B2F5FA6F05DC01321A60002038BD054816
:104AA00038BD034838BD00BF401F0020B04501009D
:104AB000994F0000FD3E0000542938B504D0562916
:104AC00042D03C293CD106E02048FDF743FB204B77
:104AD0000020187038BD1E4C2078082832D806F007
:104AE000F1FA237805460BB91A481EE0012B01D1D3
:104AF00019481AE0022B01D1184816E0032B01D106
:104B0000174812E0042B01D116480EE0052B01D105
:104B100015480AE0062B01D1144806E0072B01D105
:104B2000134802E0082B02D11248FDF713FB284678
:104B3000FDF7F8FA0548FDF70DFB237801332370E4
:104B4000002038BD0C4838BD0C4838BD9B4B0100D7
:104B5000351F0020BF450100D5450100EB45010090
:104B600001460100174601002D46010043460100A1
:104B7000594601006F460100BD460000E53E0000B9
:104B80004C2910B54ED006D82C2915D0432921D058
:104B90002B290CD123E0542904D0562944D0532981
:104BA00005D106E008F06AF92048FDF7D3FA0020A5
:104BB00010BD08F085F9FAE708F0E2FC1C4B18601C
:104BC0001C48FDF7C7FA1C4840F2A273036008F0C6
:104BD000DDFCECE71948FDF7BDFA012010BD164CCD
:104BE000204608F00FFD2079FDF738FB08F0C8FCDF
:104BF0000F4B134C1B68C01AB0F5F46F206001D343
:104C000010480DE01048FDF7A5FA2068FDF756FAA8
:104C10000E48FDF79FFA4FF4F460FDF74FFA0C4889
:104C2000FDF798FA0B4810BD0B4810BD85460100F2
:104C30003C1F0020B5460100B0030020C346010020
:104C4000C4200020D9460100E8460100FE460100CC
:104C50000E47010005500000193F000005292DE90D
:104C6000F84305460C46904601D9FDF767FA532DE7
:104C700032D002D8432D40D03CE0542D03D0562DE5
:104C800000F09D8036E04F4B00251D704E4B0121FA
:104C90001E5D304607F060FC38B94C4B53F82400D9
:104CA000FDF758FA4A48BDE8F8834A4F4A4B29466F
:104CB000185D93223B4603F0A5FB484B01221A6086
:104CC0003A46304612F8011B07F05AFD44480A23C1
:104CD000036008F05BFC0DE03A4B01221A703A4B7E
:104CE000185D3F4C07F058FC204608F08BFC2079FB
:104CF000FDF7B4FA0020BDE8F883334B354D13F8C7
:104D000004906A1C9A21484607F08AFD354E2870A7
:104D10003146284603F096FB334F0122334B3A705D
:104D20002A7818700AB9324B3EE000283BD02A4A54
:104D30003078125D824234D1327A932A31D173684D
:104D40002C491A782C4E0A6059789B7942EA012244
:104D500031602A4942450A6029490B601BD1292B41
:104D60001BDD1E4E3368632B13DC00219322194B8D
:104D7000397003F047FB3368484601332978214AEC
:104D8000336007F0FDFC16480A23036008F0FEFBC1
:104D90000EE01D4B08E0292B01DC1C4B04E01C4BF2
:104DA00002E001221A70094B53F82400FDF7D2F9F2
:104DB0003B781848002B08BF0020BDE8F883164850
:104DC000BDE8F883AE030020D0520100205201005C
:104DD000BD460000451F0020264001001420002091
:104DE00090030020B8200020AB030020281F0020E3
:104DF000F852010000200020EC1F0020AC20002011
:104E0000241F0020461F0020D85201002C40010022
:104E10005C53010005500000193F000008461E22A7
:104E20000521FFF71BBF08461E220421FFF716BF0E
:104E300008461E220321FFF711BF08464FF48C627B
:104E40000221FFF70BBF08464FF48C620121FFF7E8
:104E500005BF08461E220021FFF700BF532910B5E9
:104E600014D002D843291AD017E0542902D0562969
:104E70001ED012E008F002F808B90E4814E00E48FF
:104E800040F2DD23036008F081FB06E00A4C204677
:104E900008F0B8FB2079FDF7E1F9002010BD08F01B
:104EA00023F80328E9D10548FDF754F9044810BD5B
:104EB000044810BD16470100700300202C47010074
:104EC00005500000193F00004C2910B525D004D82A
:104ED0001F290CD043291ED00FE0542904D0562995
:104EE0001BD0532909D10EE0FDF7BAF838B10C48B0
:104EF00040F2A273036008F049FB002010BD09488E
:104F0000FDF728F9F9E7064C204608F07BFB2079ED
:104F1000FDF7A4F9F1E7044810BD044810BD00BF37
:104F200080030020424701005D430000055000005F
:104F30004C2910B520D004D81F2912D0202915D013
:104F40001CE0542902D0562916D017E0FDF788F846
:104F50000B4B187008B10B4800E00B48FDF7FAF84E
:104F60000CE0074B1B784BB9084803E0044B18785A
:104F700028B10748FDF7EEF8064810BD002010BD27
:104F8000C920002053470100664701008147010006
:104F90009747010005500000542938B505D056291F
:104FA00010D03C2905D0002038BD084B00201870D7
:104FB00038BD064D2C783CB92046FFF7F9F901239E
:104FC0002B70F0E7024838BD024838BDB4200020FD
:104FD000FD3E00008144000010B500230849C25C7A
:104FE000CC183AB1595C914204D10133412BF5D12F
:104FF000002010BD2078831A5842584110BD00BFD0
:1050000069200020532938B513D002D83B2917D086
:1050100014E0542903D0562900F0AC800EE0584823
:10502000FDF798F8574B00201870574B01221A7063
:1050300038BD544A01231370534A1370002038BD01
:105040005248FFF7C9FF002840F096805048FFF70C
:10505000C3FF002840F092804E48FFF7BDFF0028B4
:1050600066D14D48FFF7B8FF002863D14B48FFF7E2
:10507000B3FF002860D14A48FFF7AEFF00285DD19A
:105080004848FFF7A9FF00285AD14748FFF7A4FF77
:10509000002857D14548FFF79FFF002854D14448C6
:1050A000FFF79AFF002851D14248FFF795FF0028EB
:1050B0004ED14148FFF790FF00284BD13F48FFF702
:1050C0008BFF002848D13E48FFF786FF002845D1D6
:1050D0003C48FFF781FF002842D13B48FFF77CFFA7
:1050E00000283FD13948FFF777FF00283CD13848E6
:1050F000FFF772FF002839D13648FFF76DFF00280F
:1051000036D13548FFF768FF04464C206CB9334868
:10511000FFF762FF002832D03148FDF71BF8194A2B
:1051200001231370184A3E201370FDF77DF885E7C0
:105130002C4838BD2C4838BD2C4838BD2C4838BDCB
:105140002C4838BD2C4838BD2C4838BD2C4838BDBB
:105150002C4838BD2C4838BD2C4838BD2C4838BDAB
:105160002C4838BD2C4838BD2C4838BD2C4838BD9B
:105170002C4838BD2C4838BD2C4838BD2C4838BD8B
:10518000B04701007C030020AE030020C6470100A9
:10519000CF470100DA470100E4470100EE47010074
:1051A000FA470100064801001348010020480100A9
:1051B00029480100334801003D48010047480100EB
:1051C000534801005F4801006B4801007748010027
:1051D000834801008F48010098480100A24801005F
:1051E000AB480100E940000079460000714600002C
:1051F0006946000061460000594600005146000023
:105200004946000041460000193F0000534E00008F
:10521000474E00003B4E0000314E0000274E00007C
:105220001D4E0000814B000039580000314F000036
:10523000C94E0000542910B504D0562913D03C297A
:1052400006D107E00A48FCF785FF0A4B01221A70D5
:10525000002010BD074C23783BB10020FEF756FF1D
:105260000020207010BD044810BD044810BD00BFD0
:105270009B4B0100AA030020FD3E0000BD4600003C
:1052800008B507480749002203F0D0F9064A002371
:105290001370064A01201370054A137008BD00BF41
:1052A0003020002039580000CF2E0020AC2E0020E6
:1052B000D32E00204020FCF7B7BF4120FCF7B4BF3D
:1052C00000487047302000202DE9F74302200DF1FF
:1052D000060107F0A1FB0746C0B92E200DF106011B
:1052E00007F09AFB08B102200BE00DF1060108F06F
:1052F000ADF8074658B90220BDF8061007F058FD72
:105300002E20BDF8061007F053FD00E00027032013
:105310000DF1060107F080FB0646C8B92F200DF1FC
:10532000060107F079FB08B103200CE001200DF124
:10533000060108F08BF8064658B90320BDF80610A0
:1053400007F036FD2F20BDF8061007F031FD00E014
:10535000002604200DF1060107F05EFB0546C8B9E2
:1053600030200DF1060107F057FB08B104200CE0D6
:1053700002200DF1060108F069F8054658B904202D
:10538000BDF8061007F014FD3020BDF8061007F038
:105390000FFD00E0002505200DF1060107F03CFBA4
:1053A0000446C8B931200DF1060107F035FB08B1FC
:1053B00005200CE003200DF1060108F047F8044633
:1053C00058B90520BDF8061007F0F2FC3120BDF8F1
:1053D000061007F0EDFC00E0002406200DEB0001B4
:1053E00007F01AFB8046C8B932200DF1060107F01C
:1053F00013FB08B106200CE004200DF1060108F0B3
:1054000025F8804660B90620BDF8061007F0D0FCEC
:105410003220BDF8061007F0CBFC01E04FF0000889
:1054200007200DF1060107F0F7FA8146C8B93320CD
:105430000DF1060107F0F0FA08B107200CE0052095
:105440000DF1060108F002F8814660B90720BDF8A9
:10545000061007F0ADFC3320BDF8061007F0A8FCDD
:1054600001E04FF0000947B14EB155B15CB1B8F160
:10547000000F14BF4846002006E0384604E03046DE
:1054800002E0284600E0204600F0010003B0BDE83D
:10549000F083000054292DE9F84305D068485629C7
:1054A00018BF0020BDE8F8830025E8B202F0FEF83E
:1054B0004FF6FF739842064605D10A20614940F233
:1054C0000A7207F0ADFE604C284654F82530F718F4
:1054D000FCF7FCFA381A5D4F44F8250027F81560F0
:1054E0000135062DE1D15A4E338801339BB2632B2F
:1054F000338040F29F800025A846635931885FFAC7
:1055000088F993FBF1F109F102006151C0B289B24F
:1055100007F04EFC09F12E00615BC0B207F048FCB9
:105520004046615B08F1010807F086FFB8F1060FFD
:1055300005F10405E1D1474B1B786BB907F08CFAF4
:105540004548FCF707FEFFF7BFFE0546002842D09E
:105550004248FCF7FFFD5CE0232528460135002189
:10556000EDB207F025FC2E2DF7D10021382007F0F1
:105570001FFC3920002107F01BFC0E2528460135B1
:105580000021EDB207F014FC142DF7D100213A20D0
:1055900007F00EFC3B20002107F00AFC0025E8B2D2
:1055A00006F076FE28460021013507F035FF042D70
:1055B000F5D107F07FFF3C20002107F0F9FB002523
:1055C000E8B206F0C9FC28460021013507F018FFB3
:1055D000062DF5D1B2E72248FCF7BCFD37F91500DE
:1055E000FCF7A0FD1F48FCF7B5FD2846FCF76EFA56
:1055F000FCF798FD1B48FCF7ADFD54F82500FCF7BF
:1056000091FD01351848FCF7A5FD062DE6D101F006
:1056100021FC1648FCF79EFD00253E2035802560C4
:105620006560A560E56025616561FCF7FDFD2846C4
:10563000BDE8F883FBF77EFA0D48BDE8F88300BFAC
:10564000054800006845010018200020F01F0020D8
:105650002C1F00202A1F0020C0480100C248010062
:10566000F748010004490100834601009B4B0100FB
:10567000C93E00003B2838B5014642D105F0E4FFA1
:10568000041E3DDD0D2C214D15D0082C01D07F2CA2
:1056900012D12B7823B31E4A12780AB31B4A013B5E
:1056A0000820137005F0B0FF202005F0ADFF0820A2
:1056B00005F0AAFF14E00A242B783F2B10D8144BD6
:1056C0001B7843B123B20A2B02D10D2005F09CFFB9
:1056D000E0B205F099FF2B780E4AD45401332B70B9
:1056E0000D4B1B7813B124B20A2CC7D12B78094A71
:1056F00000240A483B21D45402F0E5FF2C70BDE79A
:1057000038BD0648BDE8384002F0DDBF291F002043
:105710007C03002069200020AE0300203020002000
:1057200030B53C4887B0FCF715FD0024E0B202F02C
:1057300065FA80B2FCF7C2FC052C14BF3648374826
:105740000134FCF707FD062CF0D13548FCF702FDCB
:105750000024E0B201F07EFEFCF7B0FC052C14BF83
:105760002D482E480134FCF7F5FC062CF1D12D48CC
:10577000FCF7F0FC0024E0B201F098FFFCF79EFC7F
:10578000052C14BF244825480134FCF7E3FC062C03
:10579000F1D12548FCF7DEFC0024E0B201F00EFE5A
:1057A00000B2FCF7BFFC052C14BF1B481B4801349A
:1057B000FCF7D0FC062CF0D11C48FCF7CBFC0024F5
:1057C000E0B201F055FF0546FCF778FC052C14BF4C
:1057D00011481248FCF7BEFC2DF814500134062C79
:1057E000EED103AD6846294601F08DF91048FCF76B
:1057F000B1FC002435F81400FCF760FC052C14BF44
:10580000054806480134FCF7A5FC062CF2D107B088
:1058100030BD00BF064901005E4B01009B4B0100FB
:10582000124901001B490100254901002F490100CF
:105830003949010000000000F0B5402985B006D0CC
:10584000542900F005863B2940F0058621E0A84B4D
:105850001B78013B032B00F20286DFE803F0140201
:105860000508A44800F0FCBDFBF764F906E000243D
:10587000E0B2013401F05CFB062CF9D19E4B012211
:105880001A7000F0ECBD9C4B00221A709B4800F08F
:10589000E7BD9B4B1B78012B00F0D7859948FFF79C
:1058A0009BFB28B1944B00241C70914B1C709EE212
:1058B0009548FFF791FB18B1FFF732FF00F0CBBD21
:1058C0009248FFF789FB18B99148FFF785FB30B183
:1058D0008F48FFF781FBFEF76BFD00F0BCBD8D48E4
:1058E000FFF77AFB18B98C48FFF776FB30B18A488E
:1058F000FFF772FBFEF79AFD00F0ADBD8748FFF79A
:105900006BFB20B98648FFF767FB002844D084482A
:10591000FFF762FB002800F0DF828248FCF71AFCE8
:105920000024012C0ED001A9082007F075F80DF114
:105930000601092007F070F80A2002A907F06CF8A8
:1059400079480DE001A90B2007F066F80DF106017A
:105950000C2007F061F80D2002A907F05DF87348EC
:10596000FCF7F8FBBDF80400FCF7DCFB7048FCF723
:10597000F1FBBDF80600FCF7D5FB6D48FCF7EAFB30
:10598000BDF80800FCF7CEFB01346A48FCF7E2FBE7
:10599000022C00F0A182C4E76748FFF71DFB18B98D
:1059A0006648FFF719FB30B16448FFF715FBFEF7B7
:1059B000ADFB00F050BD6248FFF70EFBD8B12324C9
:1059C000204601340021E4B207F0F2F92E2CF7D181
:1059D0000021382007F0ECF93920002107F0E8F920
:1059E0000E24204601340021E4B207F0E1F9142C22
:1059F000F7D100F030BD5348FFF7EEFA20B9524816
:105A0000FFF7EAFA0546A8B1FBF72CF910B94F48A1
:105A100000F01FBDFBF714F910B14D4800F019BD9F
:105A20004C4B01221A7001F069FB4C20FBF724F962
:105A300000F011BD4848FFF7CFFA044628B1474BA4
:105A400001221A702846112125E04548FFF7C4FAC3
:105A500028B1424B01221A70204616211BE0414812
:105A6000FFF7BAFA28B13D4B01221A70002012212B
:105A700011E03D48FFF7B0FA28B1384B01221A7007
:105A80000020172107E03948FFF7A6FA38B1334B59
:105A900001201870152101F027FE00F0DCBC34480D
:105AA000FFF79AFA38B12B4B1D78002D40F0DC80BF
:105AB000304800F0CEBC3048FFF78EFA18B92F48B6
:105AC000FFF78AFA18B105F02FFE00F0C4BC2C488D
:105AD000FFF782FA20B92B48FFF77EFA002855D04D
